{
  "_format": "hh-sol-artifact-1",
  "contractName": "OwnershipHandler",
  "sourceName": "contracts/OwnershipHandler.sol",
  "abi": [
    {
      "inputs": [
        {
          "internalType": "string",
          "name": "name_",
          "type": "string"
        },
        {
          "internalType": "string",
          "name": "symbol_",
          "type": "string"
        }
      ],
      "stateMutability": "nonpayable",
      "type": "constructor"
    },
    {
      "anonymous": false,
      "inputs": [
        {
          "indexed": true,
          "internalType": "address",
          "name": "owner",
          "type": "address"
        },
        {
          "indexed": true,
          "internalType": "address",
          "name": "approved",
          "type": "address"
        },
        {
          "indexed": true,
          "internalType": "uint256",
          "name": "tokenId",
          "type": "uint256"
        }
      ],
      "name": "Approval",
      "type": "event"
    },
    {
      "anonymous": false,
      "inputs": [
        {
          "indexed": true,
          "internalType": "address",
          "name": "owner",
          "type": "address"
        },
        {
          "indexed": true,
          "internalType": "address",
          "name": "operator",
          "type": "address"
        },
        {
          "indexed": false,
          "internalType": "bool",
          "name": "approved",
          "type": "bool"
        }
      ],
      "name": "ApprovalForAll",
      "type": "event"
    },
    {
      "anonymous": false,
      "inputs": [
        {
          "indexed": true,
          "internalType": "address",
          "name": "from",
          "type": "address"
        },
        {
          "indexed": true,
          "internalType": "address",
          "name": "to",
          "type": "address"
        },
        {
          "indexed": true,
          "internalType": "uint256",
          "name": "tokenId",
          "type": "uint256"
        }
      ],
      "name": "Transfer",
      "type": "event"
    },
    {
      "anonymous": false,
      "inputs": [
        {
          "indexed": true,
          "internalType": "uint256",
          "name": "tokenId",
          "type": "uint256"
        },
        {
          "indexed": true,
          "internalType": "address",
          "name": "user",
          "type": "address"
        },
        {
          "indexed": false,
          "internalType": "uint64",
          "name": "expires",
          "type": "uint64"
        }
      ],
      "name": "UpdateUser",
      "type": "event"
    },
    {
      "inputs": [
        {
          "internalType": "address",
          "name": "from",
          "type": "address"
        },
        {
          "internalType": "address",
          "name": "to",
          "type": "address"
        },
        {
          "internalType": "uint256",
          "name": "amount",
          "type": "uint256"
        }
      ],
      "name": "_transferAsset",
      "outputs": [],
      "stateMutability": "nonpayable",
      "type": "function"
    },
    {
      "inputs": [
        {
          "internalType": "address",
          "name": "to",
          "type": "address"
        },
        {
          "internalType": "uint256",
          "name": "tokenId",
          "type": "uint256"
        }
      ],
      "name": "approve",
      "outputs": [],
      "stateMutability": "nonpayable",
      "type": "function"
    },
    {
      "inputs": [
        {
          "internalType": "address",
          "name": "owner",
          "type": "address"
        }
      ],
      "name": "balanceOf",
      "outputs": [
        {
          "internalType": "uint256",
          "name": "",
          "type": "uint256"
        }
      ],
      "stateMutability": "view",
      "type": "function"
    },
    {
      "inputs": [],
      "name": "depositAsset",
      "outputs": [],
      "stateMutability": "payable",
      "type": "function"
    },
    {
      "inputs": [
        {
          "internalType": "uint256",
          "name": "tokenId",
          "type": "uint256"
        }
      ],
      "name": "getApproved",
      "outputs": [
        {
          "internalType": "address",
          "name": "",
          "type": "address"
        }
      ],
      "stateMutability": "view",
      "type": "function"
    },
    {
      "inputs": [],
      "name": "getDeposit",
      "outputs": [
        {
          "internalType": "uint256",
          "name": "",
          "type": "uint256"
        }
      ],
      "stateMutability": "view",
      "type": "function"
    },
    {
      "inputs": [
        {
          "internalType": "address",
          "name": "addr",
          "type": "address"
        }
      ],
      "name": "getPubKey",
      "outputs": [
        {
          "internalType": "string",
          "name": "",
          "type": "string"
        }
      ],
      "stateMutability": "view",
      "type": "function"
    },
    {
      "inputs": [
        {
          "internalType": "address",
          "name": "owner",
          "type": "address"
        },
        {
          "internalType": "address",
          "name": "operator",
          "type": "address"
        }
      ],
      "name": "isApprovedForAll",
      "outputs": [
        {
          "internalType": "bool",
          "name": "",
          "type": "bool"
        }
      ],
      "stateMutability": "view",
      "type": "function"
    },
    {
      "inputs": [
        {
          "internalType": "address",
          "name": "_to",
          "type": "address"
        },
        {
          "internalType": "string",
          "name": "_tokenURI",
          "type": "string"
        }
      ],
      "name": "mintNFT",
      "outputs": [
        {
          "internalType": "uint256",
          "name": "",
          "type": "uint256"
        }
      ],
      "stateMutability": "nonpayable",
      "type": "function"
    },
    {
      "inputs": [],
      "name": "name",
      "outputs": [
        {
          "internalType": "string",
          "name": "",
          "type": "string"
        }
      ],
      "stateMutability": "view",
      "type": "function"
    },
    {
      "inputs": [
        {
          "internalType": "uint256",
          "name": "tokenId",
          "type": "uint256"
        }
      ],
      "name": "ownerOf",
      "outputs": [
        {
          "internalType": "address",
          "name": "",
          "type": "address"
        }
      ],
      "stateMutability": "view",
      "type": "function"
    },
    {
      "inputs": [
        {
          "internalType": "address",
          "name": "from",
          "type": "address"
        },
        {
          "internalType": "address",
          "name": "to",
          "type": "address"
        },
        {
          "internalType": "uint256",
          "name": "tokenId",
          "type": "uint256"
        }
      ],
      "name": "safeTransferFrom",
      "outputs": [],
      "stateMutability": "nonpayable",
      "type": "function"
    },
    {
      "inputs": [
        {
          "internalType": "address",
          "name": "from",
          "type": "address"
        },
        {
          "internalType": "address",
          "name": "to",
          "type": "address"
        },
        {
          "internalType": "uint256",
          "name": "tokenId",
          "type": "uint256"
        },
        {
          "internalType": "bytes",
          "name": "data",
          "type": "bytes"
        }
      ],
      "name": "safeTransferFrom",
      "outputs": [],
      "stateMutability": "nonpayable",
      "type": "function"
    },
    {
      "inputs": [
        {
          "internalType": "address",
          "name": "operator",
          "type": "address"
        },
        {
          "internalType": "bool",
          "name": "approved",
          "type": "bool"
        }
      ],
      "name": "setApprovalForAll",
      "outputs": [],
      "stateMutability": "nonpayable",
      "type": "function"
    },
    {
      "inputs": [
        {
          "internalType": "uint256",
          "name": "tokenId",
          "type": "uint256"
        },
        {
          "internalType": "string",
          "name": "encryptedPhrase",
          "type": "string"
        }
      ],
      "name": "setEncryptedPhrase",
      "outputs": [],
      "stateMutability": "nonpayable",
      "type": "function"
    },
    {
      "inputs": [
        {
          "internalType": "uint256",
          "name": "tokenId",
          "type": "uint256"
        },
        {
          "internalType": "uint256",
          "name": "amount",
          "type": "uint256"
        }
      ],
      "name": "setOwnerConfirm",
      "outputs": [],
      "stateMutability": "nonpayable",
      "type": "function"
    },
    {
      "inputs": [
        {
          "internalType": "string",
          "name": "pubKey",
          "type": "string"
        }
      ],
      "name": "setPubKey",
      "outputs": [],
      "stateMutability": "nonpayable",
      "type": "function"
    },
    {
      "inputs": [
        {
          "internalType": "uint256",
          "name": "tokenId",
          "type": "uint256"
        },
        {
          "internalType": "bytes",
          "name": "updatedEncryptedURI",
          "type": "bytes"
        }
      ],
      "name": "setUpdatedEncryptedURI",
      "outputs": [],
      "stateMutability": "nonpayable",
      "type": "function"
    },
    {
      "inputs": [
        {
          "internalType": "uint256",
          "name": "tokenId",
          "type": "uint256"
        },
        {
          "internalType": "address",
          "name": "_user",
          "type": "address"
        },
        {
          "internalType": "uint64",
          "name": "expires",
          "type": "uint64"
        }
      ],
      "name": "setUser",
      "outputs": [],
      "stateMutability": "nonpayable",
      "type": "function"
    },
    {
      "inputs": [
        {
          "internalType": "uint256",
          "name": "tokenId",
          "type": "uint256"
        },
        {
          "internalType": "bytes",
          "name": "expectedUpdate",
          "type": "bytes"
        }
      ],
      "name": "setUserConfirm",
      "outputs": [],
      "stateMutability": "nonpayable",
      "type": "function"
    },
    {
      "inputs": [
        {
          "internalType": "uint256",
          "name": "tokenId",
          "type": "uint256"
        }
      ],
      "name": "showHandShakeStatus",
      "outputs": [
        {
          "components": [
            {
              "internalType": "bool",
              "name": "ownerConfirm",
              "type": "bool"
            },
            {
              "internalType": "bool",
              "name": "userConfirm",
              "type": "bool"
            },
            {
              "internalType": "string",
              "name": "encryptedPhraseByOwner",
              "type": "string"
            },
            {
              "internalType": "string",
              "name": "encryptedPhraseByUser",
              "type": "string"
            },
            {
              "internalType": "bytes",
              "name": "updatedEncryptedURI",
              "type": "bytes"
            }
          ],
          "internalType": "struct OwnershipHandler.HandShake",
          "name": "",
          "type": "tuple"
        }
      ],
      "stateMutability": "view",
      "type": "function"
    },
    {
      "inputs": [
        {
          "internalType": "bytes4",
          "name": "interfaceId",
          "type": "bytes4"
        }
      ],
      "name": "supportsInterface",
      "outputs": [
        {
          "internalType": "bool",
          "name": "",
          "type": "bool"
        }
      ],
      "stateMutability": "view",
      "type": "function"
    },
    {
      "inputs": [],
      "name": "symbol",
      "outputs": [
        {
          "internalType": "string",
          "name": "",
          "type": "string"
        }
      ],
      "stateMutability": "view",
      "type": "function"
    },
    {
      "inputs": [
        {
          "internalType": "uint256",
          "name": "tokenId",
          "type": "uint256"
        }
      ],
      "name": "tokenURI",
      "outputs": [
        {
          "internalType": "string",
          "name": "",
          "type": "string"
        }
      ],
      "stateMutability": "view",
      "type": "function"
    },
    {
      "inputs": [
        {
          "internalType": "address",
          "name": "from",
          "type": "address"
        },
        {
          "internalType": "address",
          "name": "to",
          "type": "address"
        },
        {
          "internalType": "uint256",
          "name": "tokenId",
          "type": "uint256"
        }
      ],
      "name": "transferFrom",
      "outputs": [],
      "stateMutability": "nonpayable",
      "type": "function"
    },
    {
      "inputs": [
        {
          "internalType": "uint256",
          "name": "tokenId",
          "type": "uint256"
        },
        {
          "internalType": "uint256",
          "name": "amount",
          "type": "uint256"
        },
        {
          "internalType": "string",
          "name": "newURIHash",
          "type": "string"
        }
      ],
      "name": "updateURIandTransfer",
      "outputs": [],
      "stateMutability": "nonpayable",
      "type": "function"
    },
    {
      "inputs": [
        {
          "internalType": "uint256",
          "name": "tokenId",
          "type": "uint256"
        }
      ],
      "name": "userExpires",
      "outputs": [
        {
          "internalType": "uint256",
          "name": "",
          "type": "uint256"
        }
      ],
      "stateMutability": "view",
      "type": "function"
    },
    {
      "inputs": [
        {
          "internalType": "uint256",
          "name": "tokenId",
          "type": "uint256"
        }
      ],
      "name": "userOf",
      "outputs": [
        {
          "internalType": "address",
          "name": "",
          "type": "address"
        }
      ],
      "stateMutability": "view",
      "type": "function"
    },
    {
      "inputs": [
        {
          "internalType": "address",
          "name": "owner",
          "type": "address"
        }
      ],
      "name": "viewOwning",
      "outputs": [
        {
          "internalType": "uint256[]",
          "name": "",
          "type": "uint256[]"
        }
      ],
      "stateMutability": "view",
      "type": "function"
    }
  ],
  "bytecode": "0x60806040523480156200001157600080fd5b5060405162005181380380620051818339818101604052810190620000379190620002ae565b81818160009080519060200190620000519291906200018c565b5080600190805190602001906200006a9291906200018c565b505050620000b86040518060400160405280600881526020017f4465706c6f696564000000000000000000000000000000000000000000000000815250620000c060201b62001f6a1760201c565b505062000512565b6200016081604051602401620000d7919062000362565b6040516020818303038152906040527f41304fac000000000000000000000000000000000000000000000000000000007bffffffffffffffffffffffffffffffffffffffffffffffffffffffff19166020820180517bffffffffffffffffffffffffffffffffffffffffffffffffffffffff83818316178352505050506200016360201b60201c565b50565b60008151905060006a636f6e736f6c652e6c6f679050602083016000808483855afa5050505050565b8280546200019a9062000437565b90600052602060002090601f016020900481019282620001be57600085556200020a565b82601f10620001d957805160ff19168380011785556200020a565b828001600101855582156200020a579182015b8281111562000209578251825591602001919060010190620001ec565b5b5090506200021991906200021d565b5090565b5b80821115620002385760008160009055506001016200021e565b5090565b6000620002536200024d84620003af565b62000386565b9050828152602081018484840111156200026c57600080fd5b6200027984828562000401565b509392505050565b600082601f8301126200029357600080fd5b8151620002a58482602086016200023c565b91505092915050565b60008060408385031215620002c257600080fd5b600083015167ffffffffffffffff811115620002dd57600080fd5b620002eb8582860162000281565b925050602083015167ffffffffffffffff8111156200030957600080fd5b620003178582860162000281565b9150509250929050565b60006200032e82620003e5565b6200033a8185620003f0565b93506200034c81856020860162000401565b620003578162000501565b840191505092915050565b600060208201905081810360008301526200037e818462000321565b905092915050565b600062000392620003a5565b9050620003a082826200046d565b919050565b6000604051905090565b600067ffffffffffffffff821115620003cd57620003cc620004d2565b5b620003d88262000501565b9050602081019050919050565b600081519050919050565b600082825260208201905092915050565b60005b838110156200042157808201518184015260208101905062000404565b8381111562000431576000848401525b50505050565b600060028204905060018216806200045057607f821691505b60208210811415620004675762000466620004a3565b5b50919050565b620004788262000501565b810181811067ffffffffffffffff821117156200049a5762000499620004d2565b5b80604052505050565b7f4e487b7100000000000000000000000000000000000000000000000000000000600052602260045260246000fd5b7f4e487b7100000000000000000000000000000000000000000000000000000000600052604160045260246000fd5b6000601f19601f8301169050919050565b614c5f80620005226000396000f3fe6080604052600436106101c25760003560e01c80638193052a116100f7578063c399ec8811610095578063e030565e11610064578063e030565e14610663578063e985e9c51461068c578063eacabe14146106c9578063fce9512a14610706576101c2565b8063c399ec88146105c8578063c87b56dd146105f3578063ccc41f2414610630578063d584460e1461063a576101c2565b8063a22cb465116100d1578063a22cb46514610510578063a2676f9b14610539578063b88d4fde14610562578063c2f1f14a1461058b576101c2565b80638193052a1461046b5780638fc88c48146104a857806395d89b41146104e5576101c2565b80630e84cb5a1161016457806343c6b1f21161013e57806343c6b1f21461039f5780636352211e146103c857806370a0823114610405578063806b533d14610442576101c2565b80630e84cb5a1461032457806323b872dd1461034d57806342842e0e14610376576101c2565b806307412e9c116101a057806307412e9c14610258578063081812fc14610281578063095ea7b3146102be57806309fa43b0146102e7576101c2565b806301ffc9a7146101c757806305e36b211461020457806306fdde031461022d575b600080fd5b3480156101d357600080fd5b506101ee60048036038101906101e99190613467565b610743565b6040516101fb9190613de3565b60405180910390f35b34801561021057600080fd5b5061022b60048036038101906102269190613572565b6107bd565b005b34801561023957600080fd5b506102426108a3565b60405161024f9190613e19565b60405180910390f35b34801561026457600080fd5b5061027f600480360381019061027a91906134b9565b610935565b005b34801561028d57600080fd5b506102a860048036038101906102a391906134fa565b61098c565b6040516102b59190613d5a565b60405180910390f35b3480156102ca57600080fd5b506102e560048036038101906102e0919061342b565b6109d2565b005b3480156102f357600080fd5b5061030e6004803603810190610309919061326c565b610aea565b60405161031b9190613dc1565b60405180910390f35b34801561033057600080fd5b5061034b60048036038101906103469190613656565b610b81565b005b34801561035957600080fd5b50610374600480360381019061036f91906132d1565b610e45565b005b34801561038257600080fd5b5061039d600480360381019061039891906132d1565b610ea5565b005b3480156103ab57600080fd5b506103c660048036038101906103c191906132d1565b610ec5565b005b3480156103d457600080fd5b506103ef60048036038101906103ea91906134fa565b6110bf565b6040516103fc9190613d5a565b60405180910390f35b34801561041157600080fd5b5061042c6004803603810190610427919061326c565b611171565b604051610439919061417d565b60405180910390f35b34801561044e57600080fd5b50610469600480360381019061046491906135c6565b611229565b005b34801561047757600080fd5b50610492600480360381019061048d91906134fa565b611379565b60405161049f919061415b565b60405180910390f35b3480156104b457600080fd5b506104cf60048036038101906104ca91906134fa565b6115a8565b6040516104dc919061417d565b60405180910390f35b3480156104f157600080fd5b506104fa6115e6565b6040516105079190613e19565b60405180910390f35b34801561051c57600080fd5b506105376004803603810190610532919061339b565b611678565b005b34801561054557600080fd5b50610560600480360381019061055b9190613572565b61168e565b005b34801561056e57600080fd5b5061058960048036038101906105849190613320565b611713565b005b34801561059757600080fd5b506105b260048036038101906105ad91906134fa565b611775565b6040516105bf9190613d5a565b60405180910390f35b3480156105d457600080fd5b506105dd6117fa565b6040516105ea919061417d565b60405180910390f35b3480156105ff57600080fd5b5061061a600480360381019061061591906134fa565b611844565b6040516106279190613e19565b60405180910390f35b610638611957565b005b34801561064657600080fd5b50610661600480360381019061065c919061361a565b6119e9565b005b34801561066f57600080fd5b5061068a60048036038101906106859190613523565b611b1f565b005b34801561069857600080fd5b506106b360048036038101906106ae9190613295565b611cb9565b6040516106c09190613de3565b60405180910390f35b3480156106d557600080fd5b506106f060048036038101906106eb91906133d7565b611d4d565b6040516106fd919061417d565b60405180910390f35b34801561071257600080fd5b5061072d6004803603810190610728919061326c565b611e99565b60405161073a9190613e19565b60405180910390f35b60007f5f5b175a000000000000000000000000000000000000000000000000000000007bffffffffffffffffffffffffffffffffffffffffffffffffffffffff1916827bffffffffffffffffffffffffffffffffffffffffffffffffffffffff191614806107b657506107b582612003565b5b9050919050565b6107c682611775565b73ffffffffffffffffffffffffffffffffffffffff163373ffffffffffffffffffffffffffffffffffffffff16146107fd57600080fd5b600a60008381526020019081526020016000206003016040516108209190613d1f565b6040518091039020818051906020012014610870576040517f08c379a0000000000000000000000000000000000000000000000000000000008152600401610867906140db565b60405180910390fd5b6001600a600084815260200190815260200160002060000160016101000a81548160ff0219169083151502179055505050565b6060600080546108b29061448f565b80601f01602080910402602001604051908101604052809291908181526020018280546108de9061448f565b801561092b5780601f106109005761010080835404028352916020019161092b565b820191906000526020600020905b81548152906001019060200180831161090e57829003601f168201915b5050505050905090565b80600960003373ffffffffffffffffffffffffffffffffffffffff1673ffffffffffffffffffffffffffffffffffffffff1681526020019081526020016000209080519060200190610988929190612f75565b5050565b6000610997826120e5565b6004600083815260200190815260200160002060009054906101000a900473ffffffffffffffffffffffffffffffffffffffff169050919050565b60006109dd826110bf565b90508073ffffffffffffffffffffffffffffffffffffffff168373ffffffffffffffffffffffffffffffffffffffff161415610a4e576040517f08c379a0000000000000000000000000000000000000000000000000000000008152600401610a459061403b565b60405180910390fd5b8073ffffffffffffffffffffffffffffffffffffffff16610a6d612130565b73ffffffffffffffffffffffffffffffffffffffff161480610a9c5750610a9b81610a96612130565b611cb9565b5b610adb576040517f08c379a0000000000000000000000000000000000000000000000000000000008152600401610ad290613fdb565b60405180910390fd5b610ae58383612138565b505050565b6060600860008373ffffffffffffffffffffffffffffffffffffffff1673ffffffffffffffffffffffffffffffffffffffff168152602001908152602001600020805480602002602001604051908101604052809291908181526020018280548015610b7557602002820191906000526020600020905b815481526020019060010190808311610b61575b50505050509050919050565b610b8a836110bf565b73ffffffffffffffffffffffffffffffffffffffff163373ffffffffffffffffffffffffffffffffffffffff161480610bf65750610bc783611775565b73ffffffffffffffffffffffffffffffffffffffff163373ffffffffffffffffffffffffffffffffffffffff16145b610c35576040517f08c379a0000000000000000000000000000000000000000000000000000000008152600401610c2c906140fb565b60405180910390fd5b600073ffffffffffffffffffffffffffffffffffffffff16610c56846110bf565b73ffffffffffffffffffffffffffffffffffffffff161415610cad576040517f08c379a0000000000000000000000000000000000000000000000000000000008152600401610ca49061407b565b60405180910390fd5b600073ffffffffffffffffffffffffffffffffffffffff16610cce84611775565b73ffffffffffffffffffffffffffffffffffffffff161415610d25576040517f08c379a0000000000000000000000000000000000000000000000000000000008152600401610d1c9061413b565b60405180910390fd5b60011515600a600085815260200190815260200160002060000160009054906101000a900460ff16151514610d8f576040517f08c379a0000000000000000000000000000000000000000000000000000000008152600401610d8690613f1b565b60405180910390fd5b60011515600a600085815260200190815260200160002060000160019054906101000a900460ff16151514610df9576040517f08c379a0000000000000000000000000000000000000000000000000000000008152600401610df090613f3b565b60405180910390fd5b6000610e04846110bf565b90506000610e1185611775565b9050610e1e8282876121f1565b610e29828287610e45565b610e34818386610ec5565b610e3e858461234f565b5050505050565b610e56610e50612130565b826123c3565b610e95576040517f08c379a0000000000000000000000000000000000000000000000000000000008152600401610e8c906140bb565b60405180910390fd5b610ea0838383612458565b505050565b610ec083838360405180602001604052806000815250611713565b505050565b600b60008473ffffffffffffffffffffffffffffffffffffffff1673ffffffffffffffffffffffffffffffffffffffff16815260200190815260200160002060000160009054906101000a900473ffffffffffffffffffffffffffffffffffffffff1673ffffffffffffffffffffffffffffffffffffffff168373ffffffffffffffffffffffffffffffffffffffff1614610f95576040517f08c379a0000000000000000000000000000000000000000000000000000000008152600401610f8c90613e3b565b60405180910390fd5b600b60008473ffffffffffffffffffffffffffffffffffffffff1673ffffffffffffffffffffffffffffffffffffffff1681526020019081526020016000206001015481111561101a576040517f08c379a00000000000000000000000000000000000000000000000000000000081526004016110119061409b565b60405180910390fd5b8173ffffffffffffffffffffffffffffffffffffffff166108fc829081150290604051600060405180830381858888f19350505050158015611060573d6000803e3d6000fd5b5080600b60008573ffffffffffffffffffffffffffffffffffffffff1673ffffffffffffffffffffffffffffffffffffffff16815260200190815260200160002060010160008282546110b3919061437f565b92505081905550505050565b6000806002600084815260200190815260200160002060009054906101000a900473ffffffffffffffffffffffffffffffffffffffff169050600073ffffffffffffffffffffffffffffffffffffffff168173ffffffffffffffffffffffffffffffffffffffff161415611168576040517f08c379a000000000000000000000000000000000000000000000000000000000815260040161115f9061401b565b60405180910390fd5b80915050919050565b60008073ffffffffffffffffffffffffffffffffffffffff168273ffffffffffffffffffffffffffffffffffffffff1614156111e2576040517f08c379a00000000000000000000000000000000000000000000000000000000081526004016111d990613f9b565b60405180910390fd5b600360008373ffffffffffffffffffffffffffffffffffffffff1673ffffffffffffffffffffffffffffffffffffffff168152602001908152602001600020549050919050565b611232826110bf565b73ffffffffffffffffffffffffffffffffffffffff163373ffffffffffffffffffffffffffffffffffffffff16148061129e575061126f82611775565b73ffffffffffffffffffffffffffffffffffffffff163373ffffffffffffffffffffffffffffffffffffffff16145b6112dd576040517f08c379a00000000000000000000000000000000000000000000000000000000081526004016112d490613e7b565b60405180910390fd5b6112e6826110bf565b73ffffffffffffffffffffffffffffffffffffffff163373ffffffffffffffffffffffffffffffffffffffff1614156113495780600a60008481526020019081526020016000206001019080519060200190611343929190612f75565b50611375565b80600a60008481526020019081526020016000206002019080519060200190611373929190612f75565b505b5050565b611381612ffb565b61138b600c6126bf565b82111561139757600080fd5b600a60008381526020019081526020016000206040518060a00160405290816000820160009054906101000a900460ff161515151581526020016000820160019054906101000a900460ff161515151581526020016001820180546113fb9061448f565b80601f01602080910402602001604051908101604052809291908181526020018280546114279061448f565b80156114745780601f1061144957610100808354040283529160200191611474565b820191906000526020600020905b81548152906001019060200180831161145757829003601f168201915b5050505050815260200160028201805461148d9061448f565b80601f01602080910402602001604051908101604052809291908181526020018280546114b99061448f565b80156115065780601f106114db57610100808354040283529160200191611506565b820191906000526020600020905b8154815290600101906020018083116114e957829003601f168201915b5050505050815260200160038201805461151f9061448f565b80601f016020809104026020016040519081016040528092919081815260200182805461154b9061448f565b80156115985780601f1061156d57610100808354040283529160200191611598565b820191906000526020600020905b81548152906001019060200180831161157b57829003601f168201915b5050505050815250509050919050565b60006007600083815260200190815260200160002060000160149054906101000a900467ffffffffffffffff1667ffffffffffffffff169050919050565b6060600180546115f59061448f565b80601f01602080910402602001604051908101604052809291908181526020018280546116219061448f565b801561166e5780601f106116435761010080835404028352916020019161166e565b820191906000526020600020905b81548152906001019060200180831161165157829003601f168201915b5050505050905090565b61168a611683612130565b83836126cd565b5050565b611698600c6126bf565b8211156116a457600080fd5b3373ffffffffffffffffffffffffffffffffffffffff166116c4836110bf565b73ffffffffffffffffffffffffffffffffffffffff16146116e457600080fd5b80600a6000848152602001908152602001600020600301908051906020019061170e92919061302e565b505050565b61172461171e612130565b836123c3565b611763576040517f08c379a000000000000000000000000000000000000000000000000000000000815260040161175a906140bb565b60405180910390fd5b61176f8484848461283a565b50505050565b6000426007600084815260200190815260200160002060000160149054906101000a900467ffffffffffffffff1667ffffffffffffffff16106117f0576007600083815260200190815260200160002060000160009054906101000a900473ffffffffffffffffffffffffffffffffffffffff1690506117f5565b600090505b919050565b6000600b60003373ffffffffffffffffffffffffffffffffffffffff1673ffffffffffffffffffffffffffffffffffffffff16815260200190815260200160002060010154905090565b606061184f826120e5565b600060066000848152602001908152602001600020805461186f9061448f565b80601f016020809104026020016040519081016040528092919081815260200182805461189b9061448f565b80156118e85780601f106118bd576101008083540402835291602001916118e8565b820191906000526020600020905b8154815290600101906020018083116118cb57829003601f168201915b5050505050905060006118f9612896565b905060008151141561190f578192505050611952565b60008251111561194457808260405160200161192c929190613d36565b60405160208183030381529060405292505050611952565b61194d846128ad565b925050505b919050565b6000600b60003373ffffffffffffffffffffffffffffffffffffffff1673ffffffffffffffffffffffffffffffffffffffff1681526020019081526020016000209050338160000160006101000a81548173ffffffffffffffffffffffffffffffffffffffff021916908373ffffffffffffffffffffffffffffffffffffffff16021790555034816001018190555050565b6119f2826110bf565b73ffffffffffffffffffffffffffffffffffffffff163373ffffffffffffffffffffffffffffffffffffffff1614611a5f576040517f08c379a0000000000000000000000000000000000000000000000000000000008152600401611a5690613e9b565b60405180910390fd5b600b6000611a6c84611775565b73ffffffffffffffffffffffffffffffffffffffff1673ffffffffffffffffffffffffffffffffffffffff16815260200190815260200160002060010154811115611aec576040517f08c379a0000000000000000000000000000000000000000000000000000000008152600401611ae39061411b565b60405180910390fd5b6001600a600084815260200190815260200160002060000160006101000a81548160ff0219169083151502179055505050565b611b2933846123c3565b611b68576040517f08c379a0000000000000000000000000000000000000000000000000000000008152600401611b5f90613e5b565b60405180910390fd5b426007600085815260200190815260200160002060000160149054906101000a900467ffffffffffffffff1667ffffffffffffffff161115611bdf576040517f08c379a0000000000000000000000000000000000000000000000000000000008152600401611bd69061405b565b60405180910390fd5b6000600760008581526020019081526020016000209050828160000160006101000a81548173ffffffffffffffffffffffffffffffffffffffff021916908373ffffffffffffffffffffffffffffffffffffffff160217905550818160000160146101000a81548167ffffffffffffffff021916908367ffffffffffffffff1602179055508273ffffffffffffffffffffffffffffffffffffffff16847f4e06b4e7000e659094299b3533b47b6aa8ad048e95e872d23d1f4ee55af89cfe84604051611cab9190614198565b60405180910390a350505050565b6000600560008473ffffffffffffffffffffffffffffffffffffffff1673ffffffffffffffffffffffffffffffffffffffff16815260200190815260200160002060008373ffffffffffffffffffffffffffffffffffffffff1673ffffffffffffffffffffffffffffffffffffffff16815260200190815260200160002060009054906101000a900460ff16905092915050565b6000611d59600c612915565b6000611d65600c6126bf565b9050611d71848261292b565b6000600860008673ffffffffffffffffffffffffffffffffffffffff1673ffffffffffffffffffffffffffffffffffffffff168152602001908152602001600020805490501415611e1e57604051806020016040528082815250600860008673ffffffffffffffffffffffffffffffffffffffff1673ffffffffffffffffffffffffffffffffffffffff168152602001908152602001600020906001611e189291906130b4565b50611e85565b600860008573ffffffffffffffffffffffffffffffffffffffff1673ffffffffffffffffffffffffffffffffffffffff1681526020019081526020016000208190806001815401808255809150506001900390600052602060002001600090919091909150555b611e8f818461234f565b8091505092915050565b6060600960008373ffffffffffffffffffffffffffffffffffffffff1673ffffffffffffffffffffffffffffffffffffffff1681526020019081526020016000208054611ee59061448f565b80601f0160208091040260200160405190810160405280929190818152602001828054611f119061448f565b8015611f5e5780601f10611f3357610100808354040283529160200191611f5e565b820191906000526020600020905b815481529060010190602001808311611f4157829003601f168201915b50505050509050919050565b61200081604051602401611f7e9190613e19565b6040516020818303038152906040527f41304fac000000000000000000000000000000000000000000000000000000007bffffffffffffffffffffffffffffffffffffffffffffffffffffffff19166020820180517bffffffffffffffffffffffffffffffffffffffffffffffffffffffff8381831617835250505050612b05565b50565b60007f80ac58cd000000000000000000000000000000000000000000000000000000007bffffffffffffffffffffffffffffffffffffffffffffffffffffffff1916827bffffffffffffffffffffffffffffffffffffffffffffffffffffffff191614806120ce57507f5b5e139f000000000000000000000000000000000000000000000000000000007bffffffffffffffffffffffffffffffffffffffffffffffffffffffff1916827bffffffffffffffffffffffffffffffffffffffffffffffffffffffff1916145b806120de57506120dd82612b2e565b5b9050919050565b6120ee81612b98565b61212d576040517f08c379a00000000000000000000000000000000000000000000000000000000081526004016121249061401b565b60405180910390fd5b50565b600033905090565b816004600083815260200190815260200160002060006101000a81548173ffffffffffffffffffffffffffffffffffffffff021916908373ffffffffffffffffffffffffffffffffffffffff160217905550808273ffffffffffffffffffffffffffffffffffffffff166121ab836110bf565b73ffffffffffffffffffffffffffffffffffffffff167f8c5be1e5ebec7d5bd14f71427d1e84f3dd0314c0f7b2291e5b200ac8c7c3b92560405160405180910390a45050565b6121fc838383612c04565b8173ffffffffffffffffffffffffffffffffffffffff168373ffffffffffffffffffffffffffffffffffffffff161415801561229b5750600073ffffffffffffffffffffffffffffffffffffffff166007600083815260200190815260200160002060000160009054906101000a900473ffffffffffffffffffffffffffffffffffffffff1673ffffffffffffffffffffffffffffffffffffffff1614155b1561234a5760076000828152602001908152602001600020600080820160006101000a81549073ffffffffffffffffffffffffffffffffffffffff02191690556000820160146101000a81549067ffffffffffffffff02191690555050600073ffffffffffffffffffffffffffffffffffffffff16817f4e06b4e7000e659094299b3533b47b6aa8ad048e95e872d23d1f4ee55af89cfe60006040516123419190613dfe565b60405180910390a35b505050565b61235882612b98565b612397576040517f08c379a000000000000000000000000000000000000000000000000000000000815260040161238e90613fbb565b60405180910390fd5b806006600084815260200190815260200160002090805190602001906123be929190612f75565b505050565b6000806123cf836110bf565b90508073ffffffffffffffffffffffffffffffffffffffff168473ffffffffffffffffffffffffffffffffffffffff16148061241157506124108185611cb9565b5b8061244f57508373ffffffffffffffffffffffffffffffffffffffff166124378461098c565b73ffffffffffffffffffffffffffffffffffffffff16145b91505092915050565b8273ffffffffffffffffffffffffffffffffffffffff16612478826110bf565b73ffffffffffffffffffffffffffffffffffffffff16146124ce576040517f08c379a00000000000000000000000000000000000000000000000000000000081526004016124c590613edb565b60405180910390fd5b600073ffffffffffffffffffffffffffffffffffffffff168273ffffffffffffffffffffffffffffffffffffffff16141561253e576040517f08c379a000000000000000000000000000000000000000000000000000000000815260040161253590613f5b565b60405180910390fd5b6125498383836121f1565b612554600082612138565b6001600360008573ffffffffffffffffffffffffffffffffffffffff1673ffffffffffffffffffffffffffffffffffffffff16815260200190815260200160002060008282546125a4919061437f565b925050819055506001600360008473ffffffffffffffffffffffffffffffffffffffff1673ffffffffffffffffffffffffffffffffffffffff16815260200190815260200160002060008282546125fb91906142f8565b92505081905550816002600083815260200190815260200160002060006101000a81548173ffffffffffffffffffffffffffffffffffffffff021916908373ffffffffffffffffffffffffffffffffffffffff160217905550808273ffffffffffffffffffffffffffffffffffffffff168473ffffffffffffffffffffffffffffffffffffffff167fddf252ad1be2c89b69c2b068fc378daa952ba7f163c4a11628f55a4df523b3ef60405160405180910390a46126ba838383612c09565b505050565b600081600001549050919050565b8173ffffffffffffffffffffffffffffffffffffffff168373ffffffffffffffffffffffffffffffffffffffff16141561273c576040517f08c379a000000000000000000000000000000000000000000000000000000000815260040161273390613f7b565b60405180910390fd5b80600560008573ffffffffffffffffffffffffffffffffffffffff1673ffffffffffffffffffffffffffffffffffffffff16815260200190815260200160002060008473ffffffffffffffffffffffffffffffffffffffff1673ffffffffffffffffffffffffffffffffffffffff16815260200190815260200160002060006101000a81548160ff0219169083151502179055508173ffffffffffffffffffffffffffffffffffffffff168373ffffffffffffffffffffffffffffffffffffffff167f17307eab39ab6107e8899845ad3d59bd9653f200f220920489ca2b5937696c318360405161282d9190613de3565b60405180910390a3505050565b612845848484612458565b61285184848484612c0e565b612890576040517f08c379a000000000000000000000000000000000000000000000000000000000815260040161288790613ebb565b60405180910390fd5b50505050565b606060405180602001604052806000815250905090565b60606128b8826120e5565b60006128c2612896565b905060008151116128e2576040518060200160405280600081525061290d565b806128ec84612da5565b6040516020016128fd929190613d36565b6040516020818303038152906040525b915050919050565b6001816000016000828254019250508190555050565b600073ffffffffffffffffffffffffffffffffffffffff168273ffffffffffffffffffffffffffffffffffffffff16141561299b576040517f08c379a000000000000000000000000000000000000000000000000000000000815260040161299290613ffb565b60405180910390fd5b6129a481612b98565b156129e4576040517f08c379a00000000000000000000000000000000000000000000000000000000081526004016129db90613efb565b60405180910390fd5b6129f0600083836121f1565b6001600360008473ffffffffffffffffffffffffffffffffffffffff1673ffffffffffffffffffffffffffffffffffffffff1681526020019081526020016000206000828254612a4091906142f8565b92505081905550816002600083815260200190815260200160002060006101000a81548173ffffffffffffffffffffffffffffffffffffffff021916908373ffffffffffffffffffffffffffffffffffffffff160217905550808273ffffffffffffffffffffffffffffffffffffffff16600073ffffffffffffffffffffffffffffffffffffffff167fddf252ad1be2c89b69c2b068fc378daa952ba7f163c4a11628f55a4df523b3ef60405160405180910390a4612b0160008383612c09565b5050565b60008151905060006a636f6e736f6c652e6c6f679050602083016000808483855afa5050505050565b60007f01ffc9a7000000000000000000000000000000000000000000000000000000007bffffffffffffffffffffffffffffffffffffffffffffffffffffffff1916827bffffffffffffffffffffffffffffffffffffffffffffffffffffffff1916149050919050565b60008073ffffffffffffffffffffffffffffffffffffffff166002600084815260200190815260200160002060009054906101000a900473ffffffffffffffffffffffffffffffffffffffff1673ffffffffffffffffffffffffffffffffffffffff1614159050919050565b505050565b505050565b6000612c2f8473ffffffffffffffffffffffffffffffffffffffff16612f52565b15612d98578373ffffffffffffffffffffffffffffffffffffffff1663150b7a02612c58612130565b8786866040518563ffffffff1660e01b8152600401612c7a9493929190613d75565b602060405180830381600087803b158015612c9457600080fd5b505af1925050508015612cc557506040513d601f19601f82011682018060405250810190612cc29190613490565b60015b612d48573d8060008114612cf5576040519150601f19603f3d011682016040523d82523d6000602084013e612cfa565b606091505b50600081511415612d40576040517f08c379a0000000000000000000000000000000000000000000000000000000008152600401612d3790613ebb565b60405180910390fd5b805181602001fd5b63150b7a0260e01b7bffffffffffffffffffffffffffffffffffffffffffffffffffffffff1916817bffffffffffffffffffffffffffffffffffffffffffffffffffffffff191614915050612d9d565b600190505b949350505050565b60606000821415612ded576040518060400160405280600181526020017f30000000000000000000000000000000000000000000000000000000000000008152509050612f4d565b600082905060005b60008214612e1f578080612e08906144f2565b915050600a82612e18919061434e565b9150612df5565b60008167ffffffffffffffff811115612e61577f4e487b7100000000000000000000000000000000000000000000000000000000600052604160045260246000fd5b6040519080825280601f01601f191660200182016040528015612e935781602001600182028036833780820191505090505b5090505b60008514612f4657600182612eac919061437f565b9150600a85612ebb919061453b565b6030612ec791906142f8565b60f81b818381518110612f03577f4e487b7100000000000000000000000000000000000000000000000000000000600052603260045260246000fd5b60200101907effffffffffffffffffffffffffffffffffffffffffffffffffffffffffffff1916908160001a905350600a85612f3f919061434e565b9450612e97565b8093505050505b919050565b6000808273ffffffffffffffffffffffffffffffffffffffff163b119050919050565b828054612f819061448f565b90600052602060002090601f016020900481019282612fa35760008555612fea565b82601f10612fbc57805160ff1916838001178555612fea565b82800160010185558215612fea579182015b82811115612fe9578251825591602001919060010190612fce565b5b509050612ff79190613101565b5090565b6040518060a001604052806000151581526020016000151581526020016060815260200160608152602001606081525090565b82805461303a9061448f565b90600052602060002090601f01602090048101928261305c57600085556130a3565b82601f1061307557805160ff19168380011785556130a3565b828001600101855582156130a3579182015b828111156130a2578251825591602001919060010190613087565b5b5090506130b09190613101565b5090565b8280548282559060005260206000209081019282156130f0579160200282015b828111156130ef5782518255916020019190600101906130d4565b5b5090506130fd9190613101565b5090565b5b8082111561311a576000816000905550600101613102565b5090565b600061313161312c846141d8565b6141b3565b90508281526020810184848401111561314957600080fd5b61315484828561444d565b509392505050565b600061316f61316a84614209565b6141b3565b90508281526020810184848401111561318757600080fd5b61319284828561444d565b509392505050565b6000813590506131a981614bb6565b92915050565b6000813590506131be81614bcd565b92915050565b6000813590506131d381614be4565b92915050565b6000815190506131e881614be4565b92915050565b600082601f8301126131ff57600080fd5b813561320f84826020860161311e565b91505092915050565b600082601f83011261322957600080fd5b813561323984826020860161315c565b91505092915050565b60008135905061325181614bfb565b92915050565b60008135905061326681614c12565b92915050565b60006020828403121561327e57600080fd5b600061328c8482850161319a565b91505092915050565b600080604083850312156132a857600080fd5b60006132b68582860161319a565b92505060206132c78582860161319a565b9150509250929050565b6000806000606084860312156132e657600080fd5b60006132f48682870161319a565b93505060206133058682870161319a565b925050604061331686828701613242565b9150509250925092565b6000806000806080858703121561333657600080fd5b60006133448782880161319a565b94505060206133558782880161319a565b935050604061336687828801613242565b925050606085013567ffffffffffffffff81111561338357600080fd5b61338f878288016131ee565b91505092959194509250565b600080604083850312156133ae57600080fd5b60006133bc8582860161319a565b92505060206133cd858286016131af565b9150509250929050565b600080604083850312156133ea57600080fd5b60006133f88582860161319a565b925050602083013567ffffffffffffffff81111561341557600080fd5b61342185828601613218565b9150509250929050565b6000806040838503121561343e57600080fd5b600061344c8582860161319a565b925050602061345d85828601613242565b9150509250929050565b60006020828403121561347957600080fd5b6000613487848285016131c4565b91505092915050565b6000602082840312156134a257600080fd5b60006134b0848285016131d9565b91505092915050565b6000602082840312156134cb57600080fd5b600082013567ffffffffffffffff8111156134e557600080fd5b6134f184828501613218565b91505092915050565b60006020828403121561350c57600080fd5b600061351a84828501613242565b91505092915050565b60008060006060848603121561353857600080fd5b600061354686828701613242565b93505060206135578682870161319a565b925050604061356886828701613257565b9150509250925092565b6000806040838503121561358557600080fd5b600061359385828601613242565b925050602083013567ffffffffffffffff8111156135b057600080fd5b6135bc858286016131ee565b9150509250929050565b600080604083850312156135d957600080fd5b60006135e785828601613242565b925050602083013567ffffffffffffffff81111561360457600080fd5b61361085828601613218565b9150509250929050565b6000806040838503121561362d57600080fd5b600061363b85828601613242565b925050602061364c85828601613242565b9150509250929050565b60008060006060848603121561366b57600080fd5b600061367986828701613242565b935050602061368a86828701613242565b925050604084013567ffffffffffffffff8111156136a757600080fd5b6136b386828701613218565b9150509250925092565b60006136c98383613cf2565b60208301905092915050565b6136de816143b3565b82525050565b60006136ef8261425f565b6136f9818561428d565b93506137048361423a565b8060005b8381101561373557815161371c88826136bd565b975061372783614280565b925050600181019050613708565b5085935050505092915050565b61374b816143c5565b82525050565b61375a816143c5565b82525050565b600061376b8261426a565b613775818561429e565b935061378581856020860161445c565b61378e81614628565b840191505092915050565b60006137a48261426a565b6137ae81856142af565b93506137be81856020860161445c565b6137c781614628565b840191505092915050565b600081546137df8161448f565b6137e981866142c0565b94506001821660008114613804576001811461381557613848565b60ff19831686528186019350613848565b61381e8561424a565b60005b8381101561384057815481890152600182019150602081019050613821565b838801955050505b50505092915050565b61385a8161443b565b82525050565b600061386b82614275565b61387581856142cb565b935061388581856020860161445c565b61388e81614628565b840191505092915050565b60006138a482614275565b6138ae81856142dc565b93506138be81856020860161445c565b6138c781614628565b840191505092915050565b60006138dd82614275565b6138e781856142ed565b93506138f781856020860161445c565b80840191505092915050565b6000613910601a836142dc565b915061391b82614639565b602082019050919050565b60006139336032836142dc565b915061393e82614662565b604082019050919050565b60006139566020836142dc565b9150613961826146b1565b602082019050919050565b60006139796012836142dc565b9150613984826146da565b602082019050919050565b600061399c6032836142dc565b91506139a782614703565b604082019050919050565b60006139bf6025836142dc565b91506139ca82614752565b604082019050919050565b60006139e2601c836142dc565b91506139ed826147a1565b602082019050919050565b6000613a05601a836142dc565b9150613a10826147ca565b602082019050919050565b6000613a286019836142dc565b9150613a33826147f3565b602082019050919050565b6000613a4b6024836142dc565b9150613a568261481c565b604082019050919050565b6000613a6e6019836142dc565b9150613a798261486b565b602082019050919050565b6000613a916029836142dc565b9150613a9c82614894565b604082019050919050565b6000613ab4602e836142dc565b9150613abf826148e3565b604082019050919050565b6000613ad7603e836142dc565b9150613ae282614932565b604082019050919050565b6000613afa6020836142dc565b9150613b0582614981565b602082019050919050565b6000613b1d6018836142dc565b9150613b28826149aa565b602082019050919050565b6000613b406021836142dc565b9150613b4b826149d3565b604082019050919050565b6000613b636015836142dc565b9150613b6e82614a22565b602082019050919050565b6000613b866015836142dc565b9150613b9182614a4b565b602082019050919050565b6000613ba96015836142dc565b9150613bb482614a74565b602082019050919050565b6000613bcc602e836142dc565b9150613bd782614a9d565b604082019050919050565b6000613bef6011836142dc565b9150613bfa82614aec565b602082019050919050565b6000613c12602d836142dc565b9150613c1d82614b15565b604082019050919050565b6000613c356012836142dc565b9150613c4082614b64565b602082019050919050565b6000613c586014836142dc565b9150613c6382614b8d565b602082019050919050565b600060a083016000830151613c866000860182613742565b506020830151613c996020860182613742565b5060408301518482036040860152613cb18282613860565b91505060608301518482036060860152613ccb8282613860565b91505060808301518482036080860152613ce58282613760565b9150508091505092915050565b613cfb8161441d565b82525050565b613d0a8161441d565b82525050565b613d1981614427565b82525050565b6000613d2b82846137d2565b915081905092915050565b6000613d4282856138d2565b9150613d4e82846138d2565b91508190509392505050565b6000602082019050613d6f60008301846136d5565b92915050565b6000608082019050613d8a60008301876136d5565b613d9760208301866136d5565b613da46040830185613d01565b8181036060830152613db68184613799565b905095945050505050565b60006020820190508181036000830152613ddb81846136e4565b905092915050565b6000602082019050613df86000830184613751565b92915050565b6000602082019050613e136000830184613851565b92915050565b60006020820190508181036000830152613e338184613899565b905092915050565b60006020820190508181036000830152613e5481613903565b9050919050565b60006020820190508181036000830152613e7481613926565b9050919050565b60006020820190508181036000830152613e9481613949565b9050919050565b60006020820190508181036000830152613eb48161396c565b9050919050565b60006020820190508181036000830152613ed48161398f565b9050919050565b60006020820190508181036000830152613ef4816139b2565b9050919050565b60006020820190508181036000830152613f14816139d5565b9050919050565b60006020820190508181036000830152613f34816139f8565b9050919050565b60006020820190508181036000830152613f5481613a1b565b9050919050565b60006020820190508181036000830152613f7481613a3e565b9050919050565b60006020820190508181036000830152613f9481613a61565b9050919050565b60006020820190508181036000830152613fb481613a84565b9050919050565b60006020820190508181036000830152613fd481613aa7565b9050919050565b60006020820190508181036000830152613ff481613aca565b9050919050565b6000602082019050818103600083015261401481613aed565b9050919050565b6000602082019050818103600083015261403481613b10565b9050919050565b6000602082019050818103600083015261405481613b33565b9050919050565b6000602082019050818103600083015261407481613b56565b9050919050565b6000602082019050818103600083015261409481613b79565b9050919050565b600060208201905081810360008301526140b481613b9c565b9050919050565b600060208201905081810360008301526140d481613bbf565b9050919050565b600060208201905081810360008301526140f481613be2565b9050919050565b6000602082019050818103600083015261411481613c05565b9050919050565b6000602082019050818103600083015261413481613c28565b9050919050565b6000602082019050818103600083015261415481613c4b565b9050919050565b600060208201905081810360008301526141758184613c6e565b905092915050565b60006020820190506141926000830184613d01565b92915050565b60006020820190506141ad6000830184613d10565b92915050565b60006141bd6141ce565b90506141c982826144c1565b919050565b6000604051905090565b600067ffffffffffffffff8211156141f3576141f26145f9565b5b6141fc82614628565b9050602081019050919050565b600067ffffffffffffffff821115614224576142236145f9565b5b61422d82614628565b9050602081019050919050565b6000819050602082019050919050565b60008190508160005260206000209050919050565b600081519050919050565b600081519050919050565b600081519050919050565b6000602082019050919050565b600082825260208201905092915050565b600082825260208201905092915050565b600082825260208201905092915050565b600081905092915050565b600082825260208201905092915050565b600082825260208201905092915050565b600081905092915050565b60006143038261441d565b915061430e8361441d565b9250827fffffffffffffffffffffffffffffffffffffffffffffffffffffffffffffffff038211156143435761434261456c565b5b828201905092915050565b60006143598261441d565b91506143648361441d565b9250826143745761437361459b565b5b828204905092915050565b600061438a8261441d565b91506143958361441d565b9250828210156143a8576143a761456c565b5b828203905092915050565b60006143be826143fd565b9050919050565b60008115159050919050565b60007fffffffff0000000000000000000000000000000000000000000000000000000082169050919050565b600073ffffffffffffffffffffffffffffffffffffffff82169050919050565b6000819050919050565b600067ffffffffffffffff82169050919050565b600061444682614427565b9050919050565b82818337600083830152505050565b60005b8381101561447a57808201518184015260208101905061445f565b83811115614489576000848401525b50505050565b600060028204905060018216806144a757607f821691505b602082108114156144bb576144ba6145ca565b5b50919050565b6144ca82614628565b810181811067ffffffffffffffff821117156144e9576144e86145f9565b5b80604052505050565b60006144fd8261441d565b91507fffffffffffffffffffffffffffffffffffffffffffffffffffffffffffffffff8214156145305761452f61456c565b5b600182019050919050565b60006145468261441d565b91506145518361441d565b9250826145615761456061459b565b5b828206905092915050565b7f4e487b7100000000000000000000000000000000000000000000000000000000600052601160045260246000fd5b7f4e487b7100000000000000000000000000000000000000000000000000000000600052601260045260246000fd5b7f4e487b7100000000000000000000000000000000000000000000000000000000600052602260045260246000fd5b7f4e487b7100000000000000000000000000000000000000000000000000000000600052604160045260246000fd5b6000601f19601f8301169050919050565b7f46726f6d2061646472657320646f6573206e6f74206d61746368000000000000600082015250565b7f455243343930373a207472616e736665722063616c6c6572206973206e6f742060008201527f6f776e6572206e6f7220617070726f7665640000000000000000000000000000602082015250565b7f5265717565737465722773206164647265737320697320696e636f7272656374600082015250565b7f4e6f74206f776e207468697320746f6b656e0000000000000000000000000000600082015250565b7f4552433732313a207472616e7366657220746f206e6f6e20455243373231526560008201527f63656976657220696d706c656d656e7465720000000000000000000000000000602082015250565b7f4552433732313a207472616e736665722066726f6d20696e636f72726563742060008201527f6f776e6572000000000000000000000000000000000000000000000000000000602082015250565b7f4552433732313a20746f6b656e20616c7265616479206d696e74656400000000600082015250565b7f4f776e657220646f6573206e6f7420636f6e6669726d20796574000000000000600082015250565b7f5573657220646f6573206e6f7420636f6e6669726d2079657400000000000000600082015250565b7f4552433732313a207472616e7366657220746f20746865207a65726f2061646460008201527f7265737300000000000000000000000000000000000000000000000000000000602082015250565b7f4552433732313a20617070726f766520746f2063616c6c657200000000000000600082015250565b7f4552433732313a2061646472657373207a65726f206973206e6f74206120766160008201527f6c6964206f776e65720000000000000000000000000000000000000000000000602082015250565b7f45524337323155524953746f726167653a2055524920736574206f66206e6f6e60008201527f6578697374656e7420746f6b656e000000000000000000000000000000000000602082015250565b7f4552433732313a20617070726f76652063616c6c6572206973206e6f7420746f60008201527f6b656e206f776e6572206e6f7220617070726f76656420666f7220616c6c0000602082015250565b7f4552433732313a206d696e7420746f20746865207a65726f2061646472657373600082015250565b7f4552433732313a20696e76616c696420746f6b656e2049440000000000000000600082015250565b7f4552433732313a20617070726f76616c20746f2063757272656e74206f776e6560008201527f7200000000000000000000000000000000000000000000000000000000000000602082015250565b7f497420616c726561647920686173206120757365720000000000000000000000600082015250565b7f4f776e6572206973207a65726f20616464726573730000000000000000000000600082015250565b7f4465706f736974206973206e6f7420656e6f7567680000000000000000000000600082015250565b7f4552433732313a2063616c6c6572206973206e6f7420746f6b656e206f776e6560008201527f72206e6f7220617070726f766564000000000000000000000000000000000000602082015250565b7f497420646f6573206e6f74206d61746368000000000000000000000000000000600082015250565b7f4d6573736167652073656e64657220646f6573206e6f7420746865206f776e6560008201527f72206f7220746865207573657200000000000000000000000000000000000000602082015250565b7f4e6f7420656e6f756768206465706f7369740000000000000000000000000000600082015250565b7f55736572206973207a65726f2061646472657373000000000000000000000000600082015250565b614bbf816143b3565b8114614bca57600080fd5b50565b614bd6816143c5565b8114614be157600080fd5b50565b614bed816143d1565b8114614bf857600080fd5b50565b614c048161441d565b8114614c0f57600080fd5b50565b614c1b81614427565b8114614c2657600080fd5b5056fea26469706673582212209095a464d93547823b83fbfb481857c2b3927a9cca5a61bff47146f80e7d3dae64736f6c63430008040033",
  "linkReferences": {},
  "deployedLinkReferences": {}
}